:100000000C9434000C9451000C9451000C94510049
:100010000C9451000C9451000C9451000C9451001C
:100020000C9451000C9451000C9451000C9451000C
:100030000C9451000C9451000C9451000C945100FC
:100040000C9451000C9451000C94C3020C94510078
:100050000C9451000C9471000C9451000C945100BC
:100060000C9451000C94510011241FBECFEFD8E026
:10007000DEBFCDBF11E0A0E0B1E0ECE7F6E002C0EA
:1000800005900D92A232B107D9F721E0A2E2B1E0CA
:1000900001C01D92AF32B207E1F70E94E6010C9455
:1000A0003C030C940000ECE7F0E010828081806457
:1000B0008083EEE7F0E080818F608083EAE7F0E004
:1000C00010828081806880838081886080838081C5
:1000D0008760808381E080932201808180648083B7
:1000E00008951F920F920FB60F9211248F939F9332
:1000F000EF93FF9380912201882341F01092220117
:10010000EAE7F0E080818064808359C08091230118
:10011000811112C0809178009091790090932B0109
:1001200080932A01ECE7F0E08081807F816080830A
:1001300081E0809323013BC080912301813091F4C1
:100140008091780090917900909329018093280103
:10015000ECE7F0E08081807F8260808382E08093A2
:10016000230125C080912301823091F48091780091
:10017000909179009093270180932601ECE7F0E0BD
:100180008081807F8360808383E0809323010FC020
:1001900080917800909179009093250180932401BB
:1001A000ECE7F0E08081807F80831092230181E082
:1001B00080932201EAE7F0E0808180648083FF91F0
:1001C000EF919F918F910F900FBE0F901F901895F8
:1001D00095B1907C482F4F73942B95B94BB186FB0A
:1001E000222720F930E0220F331F22953295307FED
:1001F0003227207F3227881F8827881F90E000241D
:10020000969587950794969587950794982F802DB6
:10021000942F9F79292B822B8BB908958BB1806104
:100220008BB985E08A95F1F700008BB18F7E8BB991
:1002300008959BB19B7F9BB99BB1977F9BB90E940F
:10024000E8000E940E0187EC90E00197F1F700C0F2
:10025000000008959BB194609BB99BB1977F9BB9B7
:100260000E94E8000E940E0187EC90E00197F1F7F0
:1002700000C00000089581E00E9419018FE39FE112
:100280000197F1F700C0000008958111605C862F8E
:1002900080680E9419010895CF93DF93EC0103C099
:1002A0000E942A01219688818111FACFDF91CF9196
:1002B000089584B18F6384B98AB18C678AB98BB190
:1002C000837E8BB92FEF89EF90E0215080409040E2
:1002D000E1F700C000008BB18B7F8BB98BB1877FBA
:1002E0008BB980E30E94E8000E940E018FE19EE43A
:1002F0000197F1F700C000000E940E0187E592E02F
:100300000197F1F700C000000E940E0187E592E01E
:100310000197F1F700C0000088E30E94190188E00E
:100320000E9419010E943B0186E00E9419018CE0A5
:100330000E9419010895CF92DF92EF92FF92CF931E
:10034000DF93EB019C01A4EFB1E00E94F8022FEFD4
:1003500033E040E050E00E94D60269017A01F901E1
:10036000F695E795F695E7959F01ABE7B4E10E9416
:10037000F802AC015695479524E6249FC001259FBD
:10038000900D1124C81AD90A405D48838EE28983F2
:100390008DECC89E812D112486958695869590E3D7
:1003A000980F9A83880F982F990F990F890F9C2D7A
:1003B000981B892F805D8B8386E58C831D82DF915E
:1003C000CF91FF90EF90DF90CF900895CF93DF9380
:1003D000CDB7DEB728970FB6F894DEBF0FBECDBFFE
:1003E0000E9459010E94530087E690E00E949C02FF
:1003F000789460E080E00E94450180E091E00E94F6
:100400004C0169E080E00E94450184E091E00E9497
:100410004C0160E081E00E94450188E091E00E948B
:100420004C01F894E0902A01F0902B0100912801F2
:10043000109129017894BE016F5F7F4FC7010E9420
:100440009B0163E080E00E944501CE0101960E947D
:100450004C016CE080E00E9445018CE091E00E943C
:100460004C014AE0BE016F5F7F4FC8010E94070345
:100470006CE080E00E944501CE0101960E944C0193
:100480004AE0BE016F5F7F4FC7010E94070381E111
:1004900091E00E94AE02CE0101960E94AE024AE0B7
:1004A000BE016F5F7F4FC8010E94070387E191E0A3
:1004B0000E94AE02CE0101960E94AE028EE191E052
:1004C0000E94AE020E94BB02882389F00E94BE02F5
:1004D0008B3231F480912C018F5F80932C0107C007
:1004E0008D3229F480912C01815080932C0163E09E
:1004F00081E00E9445018CE091E00E944C018091D6
:100500002C014AE0BE016F5F7F4F082E000C990B53
:100510000E94070363E081E00E944501CE0101963D
:100520000E944C012FEF83EC99E0215080409040D5
:10053000E1F700C0000075CF9093C5008093C40020
:1005400088E98093C10086E08093C200089590916D
:10055000C00095FFFCCF8093C6000895CF93DF9332
:10056000EC0103C00E94A702219688818111FACF75
:10057000DF91CF91089580912D01089510922D0162
:1005800080912E0108951F920F920FB60F921124A1
:100590008F938091C60080932E0181E080932D017E
:1005A0008F910F900FBE0F901F901895A1E21A2EF9
:1005B000AA1BBB1BFD010DC0AA1FBB1FEE1FFF1F07
:1005C000A217B307E407F50720F0A21BB30BE40B57
:1005D000F50B661F771F881F991F1A9469F760959E
:1005E0007095809590959B01AC01BD01CF01089558
:1005F000A29FB001B39FC001A39F700D811D112464
:10060000911DB29F700D811D1124911D0895BB276E
:100610004A3031F4992322F4BDE2909581959F4FA1
:100620000C941303BB27FB015527AA27880F991F9A
:10063000AA1FA41710F0A41B83955051B9F7A05D11
:10064000AA3308F0A95DA193009779F7B111B1938E
:100650001192CB010C942C03DC01FC01672F7191EA
:100660007723E1F7329704C07C916D937083629198
:0C067000AE17BF07C8F30895F894FFCF41
:10067C0053313A0053323A0053333A0020202020B1
:10068C0000504F54313A0020504F54323A000D0A6A
:02069C0000005C
:00000001FF
